{
  "transactions": [
    {
      "hash": null,
      "transactionType": "CREATE",
      "contractName": "Counter",
      "contractAddress": "0x5b73c5498c1e3b4dba84de0f1833c4a029d90519",
      "function": null,
      "arguments": null,
      "transaction": {
        "from": "0x1804c8ab1f12e6bbf3894d4083f33e07309d1f38",
        "gas": "0x35485",
        "value": "0x0",
        "input": "0x608060405234801561001057600080fd5b50610215806100206000396000f3fe608060405234801561001057600080fd5b50600436106100415760003560e01c80631003e2d21461004657806361bc221a146100625780636d4ce63c14610080575b600080fd5b610060600480360381019061005b9190610103565b61009e565b005b61006a6100b9565b604051610077919061013f565b60405180910390f35b6100886100bf565b604051610095919061013f565b60405180910390f35b806000808282546100af9190610189565b9250508190555050565b60005481565b60008054905090565b600080fd5b6000819050919050565b6100e0816100cd565b81146100eb57600080fd5b50565b6000813590506100fd816100d7565b92915050565b600060208284031215610119576101186100c8565b5b6000610127848285016100ee565b91505092915050565b610139816100cd565b82525050565b60006020820190506101546000830184610130565b92915050565b7f4e487b7100000000000000000000000000000000000000000000000000000000600052601160045260246000fd5b6000610194826100cd565b915061019f836100cd565b9250827fffffffffffffffffffffffffffffffffffffffffffffffffffffffffffffffff038211156101d4576101d361015a565b5b82820190509291505056fea26469706673582212205135b0a9d48d0635f31937deea005b8b7a81d34806c27ae375cff2f3e64a8b4a64736f6c634300080d0033",
        "nonce": "0x0",
        "chainId": "0x1"
      },
      "additionalContracts": [],
      "isFixedGasLimit": false
    },
    {
      "hash": null,
      "transactionType": "CALL",
      "contractName": "Counter",
      "contractAddress": "0x5b73c5498c1e3b4dba84de0f1833c4a029d90519",
      "function": "add(uint256)",
      "arguments": [
        "42"
      ],
      "transaction": {
        "from": "0x1804c8ab1f12e6bbf3894d4083f33e07309d1f38",
        "to": "0x5b73c5498c1e3b4dba84de0f1833c4a029d90519",
        "gas": "0xece8",
        "value": "0x0",
        "input": "0x1003e2d2000000000000000000000000000000000000000000000000000000000000002a",
        "nonce": "0x1",
        "chainId": "0x1"
      },
      "additionalContracts": [],
      "isFixedGasLimit": false
    }
  ],
  "receipts": [],
  "libraries": [],
  "pending": [],
  "returns": {},
  "timestamp": 1752062135,
  "chain": 1,
  "commit": "2ee89d4"
}