{
  "transactions": [
    {
      "hash": "0x983867557ebb0e3ba16660ef675af7632a8368ac22e5d14c9775d7b7b6813693",
      "transactionType": "CREATE",
      "contractName": "Counter",
      "contractAddress": "0x251dda90cb94f5f9f29c9cb59fa6a0cf07049632",
      "function": null,
      "arguments": null,
      "transaction": {
        "from": "0xf39fd6e51aad88f6f4ce6ab8827279cfffb92266",
        "gas": "0x35485",
        "value": "0x0",
        "input": "0x608060405234801561001057600080fd5b50610215806100206000396000f3fe608060405234801561001057600080fd5b50600436106100415760003560e01c80631003e2d21461004657806361bc221a146100625780636d4ce63c14610080575b600080fd5b610060600480360381019061005b9190610103565b61009e565b005b61006a6100b9565b604051610077919061013f565b60405180910390f35b6100886100bf565b604051610095919061013f565b60405180910390f35b806000808282546100af9190610189565b9250508190555050565b60005481565b60008054905090565b600080fd5b6000819050919050565b6100e0816100cd565b81146100eb57600080fd5b50565b6000813590506100fd816100d7565b92915050565b600060208284031215610119576101186100c8565b5b6000610127848285016100ee565b91505092915050565b610139816100cd565b82525050565b60006020820190506101546000830184610130565b92915050565b7f4e487b7100000000000000000000000000000000000000000000000000000000600052601160045260246000fd5b6000610194826100cd565b915061019f836100cd565b9250827fffffffffffffffffffffffffffffffffffffffffffffffffffffffffffffffff038211156101d4576101d361015a565b5b82820190509291505056fea26469706673582212205135b0a9d48d0635f31937deea005b8b7a81d34806c27ae375cff2f3e64a8b4a64736f6c634300080d0033",
        "nonce": "0x9c5",
        "chainId": "0x1"
      },
      "additionalContracts": [],
      "isFixedGasLimit": false
    },
    {
      "hash": "0xca2722a80c8123e75ef31cb32b8ea1aeced6b9dbed485b21911e62f2dae3988e",
      "transactionType": "CALL",
      "contractName": "Counter",
      "contractAddress": "0x251dda90cb94f5f9f29c9cb59fa6a0cf07049632",
      "function": "add(uint256)",
      "arguments": [
        "42"
      ],
      "transaction": {
        "from": "0xf39fd6e51aad88f6f4ce6ab8827279cfffb92266",
        "to": "0x251dda90cb94f5f9f29c9cb59fa6a0cf07049632",
        "gas": "0xece8",
        "value": "0x0",
        "input": "0x1003e2d2000000000000000000000000000000000000000000000000000000000000002a",
        "nonce": "0x9c6",
        "chainId": "0x1"
      },
      "additionalContracts": [],
      "isFixedGasLimit": false
    }
  ],
  "receipts": [
    {
      "status": "0x1",
      "cumulativeGasUsed": "0x28fc9",
      "logs": [],
      "logsBloom": "0x00000000000000000000000000000000000000000000000000000000000000000000000000000000000000000000000000000000000000000000000000000000000000000000000000000000000000000000000000000000000000000000000000000000000000000000000000000000000000000000000000000000000000000000000000000000000000000000000000000000000000000000000000000000000000000000000000000000000000000000000000000000000000000000000000000000000000000000000000000000000000000000000000000000000000000000000000000000000000000000000000000000000000000000000000000000",
      "type": "0x2",
      "transactionHash": "0x983867557ebb0e3ba16660ef675af7632a8368ac22e5d14c9775d7b7b6813693",
      "transactionIndex": "0x0",
      "blockHash": "0x47d0bef9032d1c2f088db5d11cefad4bdd96170f434a8aea3e56061755296c59",
      "blockNumber": "0x15d24b6",
      "gasUsed": "0x28fc9",
      "effectiveGasPrice": "0x91f6dcdc",
      "blobGasPrice": "0x1",
      "from": "0xf39fd6e51aad88f6f4ce6ab8827279cfffb92266",
      "to": null,
      "contractAddress": "0x251dda90cb94f5f9f29c9cb59fa6a0cf07049632"
    },
    {
      "status": "0x1",
      "cumulativeGasUsed": "0xab85",
      "logs": [],
      "logsBloom": "0x00000000000000000000000000000000000000000000000000000000000000000000000000000000000000000000000000000000000000000000000000000000000000000000000000000000000000000000000000000000000000000000000000000000000000000000000000000000000000000000000000000000000000000000000000000000000000000000000000000000000000000000000000000000000000000000000000000000000000000000000000000000000000000000000000000000000000000000000000000000000000000000000000000000000000000000000000000000000000000000000000000000000000000000000000000000",
      "type": "0x2",
      "transactionHash": "0xca2722a80c8123e75ef31cb32b8ea1aeced6b9dbed485b21911e62f2dae3988e",
      "transactionIndex": "0x0",
      "blockHash": "0x763ce1771482ba10b72a6a4494d5805e9541a308ca444e4d81124cf3ac26353a",
      "blockNumber": "0x15d24b7",
      "gasUsed": "0xab85",
      "effectiveGasPrice": "0x8078ed27",
      "blobGasPrice": "0x1",
      "from": "0xf39fd6e51aad88f6f4ce6ab8827279cfffb92266",
      "to": "0x251dda90cb94f5f9f29c9cb59fa6a0cf07049632",
      "contractAddress": null
    }
  ],
  "libraries": [],
  "pending": [],
  "returns": {},
  "timestamp": 1752062222,
  "chain": 1,
  "commit": "2ee89d4"
}