{
  "transactions": [
    {
      "hash": null,
      "transactionType": "CREATE",
      "contractName": "Counter",
      "contractAddress": "0x973929b819fff4fb1437cfb4e983ff4c1b7bcdf6",
      "function": null,
      "arguments": null,
      "transaction": {
        "from": "0xd4f1a35b51d40e8277d69788d7e54df8922df798",
        "gas": "0x31d79",
        "value": "0x0",
        "input": "0x6080604052348015600e575f5ffd5b506101e28061001c5f395ff3fe608060405234801561000f575f5ffd5b506004361061003f575f3560e01c80631003e2d21461004357806361bc221a1461005f5780636d4ce63c1461007d575b5f5ffd5b61005d600480360381019061005891906100f9565b61009b565b005b6100676100b5565b6040516100749190610133565b60405180910390f35b6100856100ba565b6040516100929190610133565b60405180910390f35b805f5f8282546100ab9190610179565b9250508190555050565b5f5481565b5f5f54905090565b5f5ffd5b5f819050919050565b6100d8816100c6565b81146100e2575f5ffd5b50565b5f813590506100f3816100cf565b92915050565b5f6020828403121561010e5761010d6100c2565b5b5f61011b848285016100e5565b91505092915050565b61012d816100c6565b82525050565b5f6020820190506101465f830184610124565b92915050565b7f4e487b71000000000000000000000000000000000000000000000000000000005f52601160045260245ffd5b5f610183826100c6565b915061018e836100c6565b92508282019050808211156101a6576101a561014c565b5b9291505056fea2646970667358221220625d75d038d20e4e05c034aed8092faf403943dbcc3fbf824d4ebdb5bfa4efb264736f6c634300081d0033",
        "nonce": "0x6",
        "chainId": "0xaa36a7"
      },
      "additionalContracts": [],
      "isFixedGasLimit": false
    },
    {
      "hash": null,
      "transactionType": "CALL",
      "contractName": "Counter",
      "contractAddress": "0x973929b819fff4fb1437cfb4e983ff4c1b7bcdf6",
      "function": "add(uint256)",
      "arguments": [
        "42"
      ],
      "transaction": {
        "from": "0xd4f1a35b51d40e8277d69788d7e54df8922df798",
        "to": "0x973929b819fff4fb1437cfb4e983ff4c1b7bcdf6",
        "gas": "0xecd2",
        "value": "0x0",
        "input": "0x1003e2d2000000000000000000000000000000000000000000000000000000000000002a",
        "nonce": "0x7",
        "chainId": "0xaa36a7"
      },
      "additionalContracts": [],
      "isFixedGasLimit": false
    }
  ],
  "receipts": [],
  "libraries": [],
  "pending": [],
  "returns": {},
  "timestamp": 1753254397,
  "chain": 11155111,
  "commit": "1096501"
}